{
  "contractName": "vc",
  "abi": [
    {
      "anonymous": false,
      "inputs": [
        {
          "indexed": false,
          "name": "_contractaddress",
          "type": "address"
        },
        {
          "indexed": false,
          "name": "_delegator",
          "type": "address"
        },
        {
          "indexed": false,
          "name": "_reward",
          "type": "uint256"
        },
        {
          "indexed": false,
          "name": "_intent_ended",
          "type": "uint256"
        },
        {
          "indexed": false,
          "name": "_claim_ended",
          "type": "uint256"
        },
        {
          "indexed": false,
          "name": "_current_time",
          "type": "uint256"
        }
      ],
      "name": "contractCreated",
      "type": "event",
      "signature": "0xdf677524d9db2d53e8315b047db99baca8f5b8024007d2c56fa0137bce9cbe77"
    },
    {
      "anonymous": false,
      "inputs": [
        {
          "indexed": false,
          "name": "_worker_address",
          "type": "address"
        },
        {
          "indexed": false,
          "name": "deposit",
          "type": "uint256"
        },
        {
          "indexed": false,
          "name": "_current_block",
          "type": "uint256"
        },
        {
          "indexed": false,
          "name": "_worker_number",
          "type": "uint256"
        },
        {
          "indexed": false,
          "name": "_committed_secret",
          "type": "bytes32"
        }
      ],
      "name": "workerAdded",
      "type": "event",
      "signature": "0x072e2a201bfa5827bc31939e7574088a70a485f35ee605fa79cde4c3396a3a76"
    },
    {
      "anonymous": false,
      "inputs": [
        {
          "indexed": false,
          "name": "n",
          "type": "uint256"
        },
        {
          "indexed": false,
          "name": "_worker_address",
          "type": "address"
        },
        {
          "indexed": false,
          "name": "_selected",
          "type": "bool"
        },
        {
          "indexed": false,
          "name": "round",
          "type": "uint256"
        },
        {
          "indexed": false,
          "name": "w",
          "type": "uint8"
        }
      ],
      "name": "status",
      "type": "event",
      "signature": "0xfb106f1c1b5fb0d2024fba8fbd610d927ad67b500433171e8b3338a87502b95e"
    },
    {
      "anonymous": false,
      "inputs": [
        {
          "indexed": false,
          "name": "_worker_address",
          "type": "address"
        },
        {
          "indexed": false,
          "name": "ISH",
          "type": "bytes32"
        }
      ],
      "name": "ISHCommitted",
      "type": "event",
      "signature": "0x0a24eaa86e8a74de3d581e56d2fb5e8cb74a8e3238c0654357ea2c62dd5c6d2f"
    },
    {
      "anonymous": false,
      "inputs": [
        {
          "indexed": false,
          "name": "_worker_address",
          "type": "address"
        },
        {
          "indexed": false,
          "name": "b",
          "type": "bytes32"
        }
      ],
      "name": "ISHRevealed",
      "type": "event",
      "signature": "0xc5a3a586f6835345a67b51fff1425c0c4dda1b462b39319debc9955c3ee2723b"
    },
    {
      "anonymous": false,
      "inputs": [
        {
          "indexed": false,
          "name": "c",
          "type": "string"
        }
      ],
      "name": "PayoutDone",
      "type": "event",
      "signature": "0xbf518a7870b33baa503adb7db66d1d0f4dc39221cca731d75de7b9c1210223df"
    },
    {
      "anonymous": false,
      "inputs": [
        {
          "indexed": false,
          "name": "c",
          "type": "uint256"
        }
      ],
      "name": "getcount",
      "type": "event",
      "signature": "0x060d51488561259ed4b53c25a60cc323c1bcaad2786cd3369302f780bdabc92a"
    },
    {
      "constant": false,
      "inputs": [
        {
          "name": "x",
          "type": "uint256"
        },
        {
          "name": "y",
          "type": "uint256"
        }
      ],
      "name": "createJob",
      "outputs": [],
      "payable": true,
      "stateMutability": "payable",
      "type": "function",
      "signature": "0x220578e3"
    },
    {
      "constant": false,
      "inputs": [
        {
          "name": "_secret",
          "type": "bytes32"
        }
      ],
      "name": "showIntent",
      "outputs": [],
      "payable": true,
      "stateMutability": "payable",
      "type": "function",
      "signature": "0x7540c353"
    },
    {
      "constant": false,
      "inputs": [
        {
          "name": "salt",
          "type": "string"
        }
      ],
      "name": "compute",
      "outputs": [],
      "payable": false,
      "stateMutability": "nonpayable",
      "type": "function",
      "signature": "0x9e57a390"
    },
    {
      "constant": false,
      "inputs": [
        {
          "name": "c",
          "type": "bytes32"
        }
      ],
      "name": "commitISH",
      "outputs": [],
      "payable": false,
      "stateMutability": "nonpayable",
      "type": "function",
      "signature": "0x3227deac"
    },
    {
      "constant": false,
      "inputs": [
        {
          "name": "ISH",
          "type": "bytes32"
        },
        {
          "name": "rs",
          "type": "string"
        }
      ],
      "name": "revealISH",
      "outputs": [],
      "payable": false,
      "stateMutability": "nonpayable",
      "type": "function",
      "signature": "0x64e56046"
    },
    {
      "constant": false,
      "inputs": [],
      "name": "check",
      "outputs": [],
      "payable": false,
      "stateMutability": "nonpayable",
      "type": "function",
      "signature": "0x919840ad"
    },
    {
      "constant": false,
      "inputs": [],
      "name": "payout",
      "outputs": [],
      "payable": true,
      "stateMutability": "payable",
      "type": "function",
      "signature": "0x63bd1d4a"
    }
  ],
  "bytecode": "0x6080604052336000806101000a81548173ffffffffffffffffffffffffffffffffffffffff021916908373ffffffffffffffffffffffffffffffffffffffff1602179055506000600755600160085560056009556000600a60006101000a81548160ff0219169083600381111561007257fe5b021790555034801561008357600080fd5b506129c9806100936000396000f3fe608060405260043610610083576000357c0100000000000000000000000000000000000000000000000000000000900463ffffffff168063220578e3146100885780633227deac146100c057806363bd1d4a146100fb57806364e56046146101055780637540c353146101d7578063919840ad146102055780639e57a3901461021c575b600080fd5b6100be6004803603604081101561009e57600080fd5b8101908080359060200190929190803590602001909291905050506102e4565b005b3480156100cc57600080fd5b506100f9600480360360208110156100e357600080fd5b8101908080359060200190929190505050610579565b005b6101036108bc565b005b34801561011157600080fd5b506101d56004803603604081101561012857600080fd5b81019080803590602001909291908035906020019064010000000081111561014f57600080fd5b82018360208201111561016157600080fd5b8035906020019184600183028401116401000000008311171561018357600080fd5b91908080601f016020809104026020016040519081016040528093929190818152602001838380828437600081840152601f19601f820116905080830192505050505050509192919290505050610e52565b005b610203600480360360208110156101ed57600080fd5b81019080803590602001909291905050506113c7565b005b34801561021157600080fd5b5061021a611a2e565b005b34801561022857600080fd5b506102e26004803603602081101561023f57600080fd5b810190808035906020019064010000000081111561025c57600080fd5b82018360208201111561026e57600080fd5b8035906020019184600183028401116401000000008311171561029057600080fd5b91908080601f016020809104026020016040519081016040528093929190818152602001838380828437600081840152601f19601f82011690508083019250505050505050919291929050505061228e565b005b6000809054906101000a900473ffffffffffffffffffffffffffffffffffffffff1673ffffffffffffffffffffffffffffffffffffffff163373ffffffffffffffffffffffffffffffffffffffff161415156103a8576040517f08c379a000000000000000000000000000000000000000000000000000000000815260040180806020018281038252601a8152602001807f4f6e6c792044656c656761746f722073686f756c642063616c6c00000000000081525060200191505060405180910390fd5b600060038111156103b557fe5b600a60009054906101000a900460ff1660038111156103d057fe5b141515610445576040517f08c379a00000000000000000000000000000000000000000000000000000000081526004018080602001828103825260188152602001807f436f6e7472616374206e6f74207965742063726561746564000000000000000081525060200191505060405180910390fd5b3460018190555081420160048190555060028181151561046157fe5b0442016005819055508042016006819055506001600a60006101000a81548160ff0219169083600381111561049257fe5b02179055507fdf677524d9db2d53e8315b047db99baca8f5b8024007d2c56fa0137bce9cbe77306000809054906101000a900473ffffffffffffffffffffffffffffffffffffffff1660015460045460055442604051808773ffffffffffffffffffffffffffffffffffffffff1673ffffffffffffffffffffffffffffffffffffffff1681526020018673ffffffffffffffffffffffffffffffffffffffff1673ffffffffffffffffffffffffffffffffffffffff168152602001858152602001848152602001838152602001828152602001965050505050505060405180910390a15050565b6002600381111561058657fe5b600a60009054906101000a900460ff1660038111156105a157fe5b141515610616576040517f08c379a00000000000000000000000000000000000000000000000000000000081526004018080602001828103825260168152602001807f436f6d70757465206e6f74207965742063616c6c65640000000000000000000081525060200191505060405180910390fd5b60011515600c60003373ffffffffffffffffffffffffffffffffffffffff1673ffffffffffffffffffffffffffffffffffffffff16815260200190815260200160002060020160009054906101000a900460ff1615151415156106e1576040517f08c379a00000000000000000000000000000000000000000000000000000000081526004018080602001828103825260138152602001807f73656e646572206e6f742073656c65637465640000000000000000000000000081525060200191505060405180910390fd5b60001515600c60003373ffffffffffffffffffffffffffffffffffffffff1673ffffffffffffffffffffffffffffffffffffffff16815260200190815260200160002060050160009054906101000a900460ff1615151415156107ac576040517f08c379a00000000000000000000000000000000000000000000000000000000081526004018080602001828103825260188152602001807f73656e64657220416c726561647920636f6d6d6974746564000000000000000081525060200191505060405180910390fd5b80600c60003373ffffffffffffffffffffffffffffffffffffffff1673ffffffffffffffffffffffffffffffffffffffff168152602001908152602001600020600601819055506001600c60003373ffffffffffffffffffffffffffffffffffffffff1673ffffffffffffffffffffffffffffffffffffffff16815260200190815260200160002060050160006101000a81548160ff0219169083151502179055507f0a24eaa86e8a74de3d581e56d2fb5e8cb74a8e3238c0654357ea2c62dd5c6d2f3382604051808373ffffffffffffffffffffffffffffffffffffffff1673ffffffffffffffffffffffffffffffffffffffff1681526020018281526020019250505060405180910390a150565b6003808111156108c857fe5b600a60009054906101000a900460ff1660038111156108e357fe5b141515610958576040517f08c379a000000000000000000000000000000000000000000000000000000000815260040180806020018281038252600a8152602001807f4e6f74206167726565640000000000000000000000000000000000000000000081525060200191505060405180910390fd5b60038081111561096457fe5b600a60009054906101000a900460ff16600381111561097f57fe5b1415610de75760008090506000809050600060075490506000600190505b8181111515610a65576000600b600083815260200190815260200160002060000160009054906101000a900473ffffffffffffffffffffffffffffffffffffffff1690506002808111156109ed57fe5b600c60008373ffffffffffffffffffffffffffffffffffffffff1673ffffffffffffffffffffffffffffffffffffffff16815260200190815260200160002060070160009054906101000a900460ff166002811115610a4857fe5b1415610a575784806001019550505b50808060010191505061099d565b506000600190505b8181111515610b36576000600b600083815260200190815260200160002060000160009054906101000a900473ffffffffffffffffffffffffffffffffffffffff16905060006002811115610abe57fe5b600c60008373ffffffffffffffffffffffffffffffffffffffff1673ffffffffffffffffffffffffffffffffffffffff16815260200190815260200160002060070160009054906101000a900460ff166002811115610b1957fe5b1415610b285783806001019450505b508080600101915050610a6d565b50600082848303039050600060018483850303101515610b6957838284600254811515610b5f57fe5b0403039050610b6e565b600090505b6000600190505b8381111515610d74576000600b600083815260200190815260200160002060000160009054906101000a900473ffffffffffffffffffffffffffffffffffffffff16905060016002811115610bc657fe5b600c60008373ffffffffffffffffffffffffffffffffffffffff1673ffffffffffffffffffffffffffffffffffffffff16815260200190815260200160002060070160009054906101000a900460ff166002811115610c2157fe5b1415610ca3578073ffffffffffffffffffffffffffffffffffffffff166108fc8585811515610c4c57fe5b0487600254811515610c5a57fe5b048a6001600854036009540203600154811515610c7357fe5b0401019081150290604051600060405180830381858888f19350505050158015610ca1573d6000803e3d6000fd5b505b60006002811115610cb057fe5b600c60008373ffffffffffffffffffffffffffffffffffffffff1673ffffffffffffffffffffffffffffffffffffffff16815260200190815260200160002060070160009054906101000a900460ff166002811115610d0b57fe5b1415610d66578073ffffffffffffffffffffffffffffffffffffffff166108fc86600254811515610d3857fe5b049081150290604051600060405180830381858888f19350505050158015610d64573d6000803e3d6000fd5b505b508080600101915050610b75565b507fbf518a7870b33baa503adb7db66d1d0f4dc39221cca731d75de7b9c1210223df6040518080602001828103825260068152602001807f616772656564000000000000000000000000000000000000000000000000000081525060200191505060405180910390a15050505050610e50565b7fbf518a7870b33baa503adb7db66d1d0f4dc39221cca731d75de7b9c1210223df6040518080602001828103825260098152602001807f646973616772656564000000000000000000000000000000000000000000000081525060200191505060405180910390a15b565b60011515600c60003373ffffffffffffffffffffffffffffffffffffffff1673ffffffffffffffffffffffffffffffffffffffff16815260200190815260200160002060020160009054906101000a900460ff161515141515610f1d576040517f08c379a00000000000000000000000000000000000000000000000000000000081526004018080602001828103825260138152602001807f73656e646572206e6f742073656c65637465640000000000000000000000000081525060200191505060405180910390fd5b60011515600c60003373ffffffffffffffffffffffffffffffffffffffff1673ffffffffffffffffffffffffffffffffffffffff16815260200190815260200160002060050160009054906101000a900460ff161515141515610fe8576040517f08c379a00000000000000000000000000000000000000000000000000000000081526004018080602001828103825260148152602001807f73656e646572206e6f7420636f6d6d697474656400000000000000000000000081525060200191505060405180910390fd5b60001515600c60003373ffffffffffffffffffffffffffffffffffffffff1673ffffffffffffffffffffffffffffffffffffffff16815260200190815260200160002060050160019054906101000a900460ff1615151415156110b3576040517f08c379a00000000000000000000000000000000000000000000000000000000081526004018080602001828103825260178152602001807f53656e64657220616c72656164792072657665616c656400000000000000000081525060200191505060405180910390fd5b600c60003373ffffffffffffffffffffffffffffffffffffffff1673ffffffffffffffffffffffffffffffffffffffff16815260200190815260200160002060040154816040516020018082805190602001908083835b60208310151561112f578051825260208201915060208101905060208303925061110a565b6001836020036101000a038019825116818451168082178552505050505050905001915050604051602081830303815290604052805190602001201415156111df576040517f08c379a00000000000000000000000000000000000000000000000000000000081526004018080602001828103825260158152602001807f4e6f74206120636f6d6d69747465642076616c7565000000000000000000000081525060200191505060405180910390fd5b600c60003373ffffffffffffffffffffffffffffffffffffffff1673ffffffffffffffffffffffffffffffffffffffff168152602001908152602001600020600601548260405160200180828152602001915050604051602081830303815290604052805190602001201415156112be576040517f08c379a00000000000000000000000000000000000000000000000000000000081526004018080602001828103825260138152602001807f4e6f74206120636f6d6d6974746564204953480000000000000000000000000081525060200191505060405180910390fd5b81600c60003373ffffffffffffffffffffffffffffffffffffffff1673ffffffffffffffffffffffffffffffffffffffff1681526020019081526020016000206006018190555060011515600c60003373ffffffffffffffffffffffffffffffffffffffff1673ffffffffffffffffffffffffffffffffffffffff16815260200190815260200160002060050160019054906101000a905050507fc5a3a586f6835345a67b51fff1425c0c4dda1b462b39319debc9955c3ee2723b3383604051808373ffffffffffffffffffffffffffffffffffffffff1673ffffffffffffffffffffffffffffffffffffffff1681526020018281526020019250505060405180910390a15050565b6000809054906101000a900473ffffffffffffffffffffffffffffffffffffffff1673ffffffffffffffffffffffffffffffffffffffff163373ffffffffffffffffffffffffffffffffffffffff161415151561148c576040517f08c379a00000000000000000000000000000000000000000000000000000000081526004018080602001828103825260208152602001807f44656c656761746f722073686f756c64206e6f742073686f7720696e74656e7481525060200191505060405180910390fd5b346001548110151515611507576040517f08c379a00000000000000000000000000000000000000000000000000000000081526004018080602001828103825260128152602001807f4e6f7420656e6f756768206465706f736974000000000000000000000000000081525060200191505060405180910390fd5b61151033612716565b1515611584576040517f08c379a000000000000000000000000000000000000000000000000000000000815260040180806020018281038252600f8152602001807f4475706c696361746520456e747279000000000000000000000000000000000081525060200191505060405180910390fd5b6001600381111561159157fe5b600a60009054906101000a900460ff1660038111156115ac57fe5b141515611621576040517f08c379a00000000000000000000000000000000000000000000000000000000081526004018080602001828103825260138152602001807f4a6f62206e6f742079657420637265617465640000000000000000000000000081525060200191505060405180910390fd5b600160076000828254019250508190555060408051908101604052803373ffffffffffffffffffffffffffffffffffffffff16815260200160001515815250600b6000600754815260200190815260200160002060008201518160000160006101000a81548173ffffffffffffffffffffffffffffffffffffffff021916908373ffffffffffffffffffffffffffffffffffffffff16021790555060208201518160000160146101000a81548160ff02191690831515021790555090505033600c60003373ffffffffffffffffffffffffffffffffffffffff1673ffffffffffffffffffffffffffffffffffffffff16815260200190815260200160002060000160006101000a81548173ffffffffffffffffffffffffffffffffffffffff021916908373ffffffffffffffffffffffffffffffffffffffff160217905550600754600c60003373ffffffffffffffffffffffffffffffffffffffff1673ffffffffffffffffffffffffffffffffffffffff168152602001908152602001600020600101819055506000600c60003373ffffffffffffffffffffffffffffffffffffffff1673ffffffffffffffffffffffffffffffffffffffff1681526020019081526020016000206003018190555081600c60003373ffffffffffffffffffffffffffffffffffffffff1673ffffffffffffffffffffffffffffffffffffffff168152602001908152602001600020600401819055506000600c60003373ffffffffffffffffffffffffffffffffffffffff1673ffffffffffffffffffffffffffffffffffffffff16815260200190815260200160002060050160006101000a81548160ff0219169083151502179055506000600c60003373ffffffffffffffffffffffffffffffffffffffff1673ffffffffffffffffffffffffffffffffffffffff16815260200190815260200160002060050160016101000a81548160ff0219169083151502179055506000600c60003373ffffffffffffffffffffffffffffffffffffffff1673ffffffffffffffffffffffffffffffffffffffff168152602001908152602001600020600601819055506000600c60003373ffffffffffffffffffffffffffffffffffffffff1673ffffffffffffffffffffffffffffffffffffffff16815260200190815260200160002060070160006101000a81548160ff0219169083600281111561199557fe5b021790555034600254016002819055507f072e2a201bfa5827bc31939e7574088a70a485f35ee605fa79cde4c3396a3a7633344260075486604051808673ffffffffffffffffffffffffffffffffffffffff1673ffffffffffffffffffffffffffffffffffffffff1681526020018581526020018481526020018381526020018281526020019550505050505060405180910390a15050565b6000809054906101000a900473ffffffffffffffffffffffffffffffffffffffff1673ffffffffffffffffffffffffffffffffffffffff163373ffffffffffffffffffffffffffffffffffffffff16141515611af2576040517f08c379a000000000000000000000000000000000000000000000000000000000815260040180806020018281038252601a8152602001807f4f6e6c792044656c656761746f722073686f756c642063616c6c00000000000081525060200191505060405180910390fd5b600080905060006007549050600080600190505b8281111515611ced5760006001820190505b8381111515611cdf576000600b600084815260200190815260200160002060000160009054906101000a900473ffffffffffffffffffffffffffffffffffffffff1690506000600b600084815260200190815260200160002060000160009054906101000a900473ffffffffffffffffffffffffffffffffffffffff169050600160085403600c60008473ffffffffffffffffffffffffffffffffffffffff1673ffffffffffffffffffffffffffffffffffffffff16815260200190815260200160002060030154148015611c335750600160085403600c60008373ffffffffffffffffffffffffffffffffffffffff1673ffffffffffffffffffffffffffffffffffffffff16815260200190815260200160002060030154145b8015611cc25750600c60008273ffffffffffffffffffffffffffffffffffffffff1673ffffffffffffffffffffffffffffffffffffffff16815260200190815260200160002060060154600c60008473ffffffffffffffffffffffffffffffffffffffff1673ffffffffffffffffffffffffffffffffffffffff16815260200190815260200160002060060154145b15611cd05786806001019750505b50508080600101915050611b18565b508080600101915050611b06565b50600260016009540360095402811515611d0357fe5b04831415611e87576003600a60006101000a81548160ff02191690836003811115611d2a57fe5b02179055506000600190505b8281111515611e81576000600b600083815260200190815260200160002060000160009054906101000a900473ffffffffffffffffffffffffffffffffffffffff169050600160085403600c60008373ffffffffffffffffffffffffffffffffffffffff1673ffffffffffffffffffffffffffffffffffffffff168152602001908152602001600020600301541415611e73576001600c60008373ffffffffffffffffffffffffffffffffffffffff1673ffffffffffffffffffffffffffffffffffffffff16815260200190815260200160002060070160006101000a81548160ff02191690836002811115611e2857fe5b0217905550600c60008273ffffffffffffffffffffffffffffffffffffffff1673ffffffffffffffffffffffffffffffffffffffff1681526020019081526020016000206006015492505b508080600101915050611d36565b50611eac565b6001600a60006101000a81548160ff02191690836003811115611ea657fe5b02179055505b600180600854031115612289576000600190505b8281111515612287576000600b600083815260200190815260200160002060000160009054906101000a900473ffffffffffffffffffffffffffffffffffffffff16905082600c60008373ffffffffffffffffffffffffffffffffffffffff1673ffffffffffffffffffffffffffffffffffffffff16815260200190815260200160002060060154148015611fba575060006002811115611f5d57fe5b600c60008373ffffffffffffffffffffffffffffffffffffffff1673ffffffffffffffffffffffffffffffffffffffff16815260200190815260200160002060070160009054906101000a900460ff166002811115611fb857fe5b145b15612024576001600c60008373ffffffffffffffffffffffffffffffffffffffff1673ffffffffffffffffffffffffffffffffffffffff16815260200190815260200160002060070160006101000a81548160ff0219169083600281111561201e57fe5b02179055505b82600c60008373ffffffffffffffffffffffffffffffffffffffff1673ffffffffffffffffffffffffffffffffffffffff16815260200190815260200160002060060154141580156120c9575060011515600c60008373ffffffffffffffffffffffffffffffffffffffff1673ffffffffffffffffffffffffffffffffffffffff16815260200190815260200160002060020160009054906101000a900460ff161515145b801561213a5750600060028111156120dd57fe5b600c60008373ffffffffffffffffffffffffffffffffffffffff1673ffffffffffffffffffffffffffffffffffffffff16815260200190815260200160002060070160009054906101000a900460ff16600281111561213857fe5b145b15612210576002600c60008373ffffffffffffffffffffffffffffffffffffffff1673ffffffffffffffffffffffffffffffffffffffff16815260200190815260200160002060070160006101000a81548160ff0219169083600281111561219e57fe5b02179055507fbf518a7870b33baa503adb7db66d1d0f4dc39221cca731d75de7b9c1210223df60405180806020018281038252600f8152602001807f4d616c6963696f757320666f756e64000000000000000000000000000000000081525060200191505060405180910390a1612279565b7fbf518a7870b33baa503adb7db66d1d0f4dc39221cca731d75de7b9c1210223df6040518080602001828103825260138152602001807f4d616c6963696f7573206e6f7420666f756e640000000000000000000000000081525060200191505060405180910390a15b508080600101915050611ec0565b505b505050565b6000809054906101000a900473ffffffffffffffffffffffffffffffffffffffff1673ffffffffffffffffffffffffffffffffffffffff163373ffffffffffffffffffffffffffffffffffffffff16141515612352576040517f08c379a000000000000000000000000000000000000000000000000000000000815260040180806020018281038252601a8152602001807f4f6e6c792044656c656761746f722073686f756c642063616c6c00000000000081525060200191505060405180910390fd5b60008090506000806007549050600042856040516020018083815260200182805190602001908083835b6020831015156123a1578051825260208201915060208101905060208303925061237c565b6001836020036101000a038019825116818451168082178552505050505050905001925050506040516020818303038152906040528051906020012090505b60095484101561267c578181600190048115156123f957fe5b069250600183101561240c578260010392505b5b60011515600b600085815260200190815260200160002060000160149054906101000a900460ff16151514156124e25780856040516020018083815260200182805190602001908083835b60208310151561247d5780518252602082019150602081019050602083039250612458565b6001836020036101000a038019825116818451168082178552505050505050905001925050506040516020818303038152906040528051906020012090508181600190048115156124ca57fe5b06925060018310156124dd578260010392505b61240d565b6001600b600085815260200190815260200160002060000160146101000a81548160ff0219169083151502179055506000600b600085815260200190815260200160002060000160009054906101000a900473ffffffffffffffffffffffffffffffffffffffff1690506001600c60008373ffffffffffffffffffffffffffffffffffffffff1673ffffffffffffffffffffffffffffffffffffffff16815260200190815260200160002060020160006101000a81548160ff021916908315150217905550600854600c60008373ffffffffffffffffffffffffffffffffffffffff1673ffffffffffffffffffffffffffffffffffffffff1681526020019081526020016000206003018190555081866040516020018083815260200182805190602001908083835b602083101515612630578051825260208201915060208101905060208303925061260b565b6001836020036101000a038019825116818451168082178552505050505050905001925050506040516020818303038152906040528051906020012091508480600101955050506123e0565b6008600081548092919060010191905055506002600a60006101000a81548160ff021916908360038111156126ad57fe5b02179055506000600190505b828111151561270e57612701600b600083815260200190815260200160002060000160009054906101000a900473ffffffffffffffffffffffffffffffffffffffff166127c1565b80806001019150506126b9565b505050505050565b60008173ffffffffffffffffffffffffffffffffffffffff16600c60008473ffffffffffffffffffffffffffffffffffffffff1673ffffffffffffffffffffffffffffffffffffffff16815260200190815260200160002060000160009054906101000a900473ffffffffffffffffffffffffffffffffffffffff1673ffffffffffffffffffffffffffffffffffffffff1614156127b757600090506127bc565b600190505b919050565b7ffb106f1c1b5fb0d2024fba8fbd610d927ad67b500433171e8b3338a87502b95e600754600c60008473ffffffffffffffffffffffffffffffffffffffff1673ffffffffffffffffffffffffffffffffffffffff16815260200190815260200160002060000160009054906101000a900473ffffffffffffffffffffffffffffffffffffffff16600c60008573ffffffffffffffffffffffffffffffffffffffff1673ffffffffffffffffffffffffffffffffffffffff16815260200190815260200160002060020160009054906101000a900460ff16600c60008673ffffffffffffffffffffffffffffffffffffffff1673ffffffffffffffffffffffffffffffffffffffff16815260200190815260200160002060030154600c60008773ffffffffffffffffffffffffffffffffffffffff1673ffffffffffffffffffffffffffffffffffffffff16815260200190815260200160002060070160009054906101000a900460ff16604051808681526020018573ffffffffffffffffffffffffffffffffffffffff1673ffffffffffffffffffffffffffffffffffffffff1681526020018415151515815260200183815260200182600281111561298357fe5b60ff1681526020019550505050505060405180910390a15056fea165627a7a72305820fd394254a7d79c9f8540e3614fb723a9055d57cddd287b686b56ae16c3a1d45b0029",
  "source": "pragma solidity ^0.5.0;\ncontract vc {\n    address payable delegator=msg.sender;\n    uint reward;\n    uint deposit;\n    uint fine;\n    uint256 intent_ended;\n    uint256 claim_ended;\n    uint256 reveal_ended;\n    uint256 numWor=0;\n    uint in_round=1;\n    uint k = 5; // number of workers per round\n    enum state{init,created,compute,agreed}\n    state s=state.init;\n    enum Wtype{NA,H,M} // H - honest, M - malicious, NA - shown intent but work not assigned\n    //structure to track index numbers\n    struct Worker {\n        address payable name;\n        bool selected;\n    }\n    // structure to store worker data\n   struct newWorker {\n       address payable name;\n       uint id;\n       bool selected;\n       uint round;\n       bytes32 secret;\n       bool iscommitted;\n       bool isRevealed;\n       bytes32 ish;\n       Wtype wtype;\n   }\n\n    mapping(uint => Worker) workers;\n    mapping(address => newWorker) w;\n\n    modifier notDelegator {require(msg.sender!=delegator,\"Delegator should not show intent\");   _;  }\n    modifier onlyDelegator {require(msg.sender==delegator,\"Only Delegator should call\");_;}\n    modifier onlyBefore(uint _time,string memory message) { require(block.timestamp<_time,message) ; _;   }\n    modifier onlyAfter(uint  _time,string memory message) { require(block.timestamp>_time,message) ; _;   }\n    modifier onlyEnoughDeposit(uint  val) {require(val>=reward,\"Not enough deposit\"); _;}\n\n    event contractCreated(address _contractaddress, address _delegator, uint _reward, uint256 _intent_ended, uint256 _claim_ended, uint256 _current_time);\n    event workerAdded(address _worker_address, uint deposit, uint _current_block,uint _worker_number,bytes32 _committed_secret);\n    event status(uint n,address _worker_address,bool _selected, uint round, Wtype w);\n    event ISHCommitted(address _worker_address,bytes32 ISH);\n    event ISHRevealed(address _worker_address,bytes32 b);\n    event PayoutDone(string c);\n    event getcount(uint c);\n    //function to get block reward and also to set timing parameters, this can also be written as constructor\n    function createJob(uint256  x,  uint256  y) public payable onlyDelegator{\n        require(s==state.init,\"Contract not yet created\");\n        reward = msg.value;                         // reward sent as a message value\n        intent_ended = block.timestamp + x;         //time to close intent round\n        claim_ended = block.timestamp + y/2;\n        reveal_ended = block.timestamp + y;      // time to close claim round\n        s = state.created;\n        emit contractCreated(address(this),delegator,reward,intent_ended,claim_ended,block.timestamp);\n      }\n    // Workers show intent by sending deposit along with hash of some integer, which is used later to mask ish value.\n    function showIntent(bytes32  _secret) public payable notDelegator /*onlyBefore(intent_ended,\"intent timed out\")*/ onlyEnoughDeposit(msg.value) {\n        require(checkDuplicate(msg.sender),\"Duplicate Entry\");  // To avoid multiple intents from same address\n        require(s==state.created,\"Job not yet created\");        // To check Job has created\n        numWor +=1;                                             // workers count\n        workers[numWor] = Worker(msg.sender,false);\n        w[msg.sender].name = msg.sender;\n        w[msg.sender].id = numWor;\n        w[msg.sender].round = 0;\n        w[msg.sender].secret = _secret;\n        w[msg.sender].iscommitted = false;\n        w[msg.sender].isRevealed = false;\n        w[msg.sender].ish ='';\n        w[msg.sender].wtype = Wtype.NA;\n        deposit =deposit+msg.value;                           // Workers deposits accumalated\n        emit workerAdded(msg.sender,msg.value,block.timestamp,numWor,_secret);\n        }\n    // using salt to randomise as much as possible, anybody can call this function but we are restricting to only delegator\n    // This function selects random workers. Only selected workers are eligible to compute the work.\n   function compute(string memory salt) /*onlyAfter(intent_ended,\"intent time not yet finished\")*/ onlyDelegator public\n   {\n      uint count=0;\n      uint winner;\n      uint n=numWor;\n      //uint k=n/2;                                           // Number of workers per round\n      // Taking hash of the n*10(no particular reason for this choice) block from current block and again hashing it by adding salt\n      bytes32 seed = keccak256(abi.encodePacked(block.timestamp,salt));\n      while(count<k)\n      {\n          winner = uint(seed)%n;\n          if(winner<1) {\n            winner = 1 - winner;\n          }\n        while(workers[winner].selected == true)\n        {\n            seed = keccak256(abi.encodePacked(seed,salt));\n            winner = uint(seed)%n;\n            if(winner<1) {\n              winner = 1 - winner;\n            }\n          }\n      workers[winner].selected = true;\n      address a = workers[winner].name;\n      w[a].selected = true;\n      w[a].round = in_round;\n      seed=keccak256(abi.encodePacked(seed,salt));\n      count++;\n      }\n    in_round++;                          // round number is incremented\n    s =state.compute;\n    for(uint i=1;i<=n;i++) {\n        knowStatus(workers[i].name);\n      }\n    }\n    function knowStatus(address a) internal {\n        emit status(numWor,w[a].name,w[a].selected,w[a].round,w[a].wtype);\n      }\n    // ish hashed along with random number commited while showing intent is committed\n    function commitISH(bytes32  c) /*onlyBefore(claim_ended,\"Claim ENDED\")*/  public {\n       require(s==state.compute,\"Compute not yet called\");                    // only after compute is called\n       require(w[msg.sender].selected==true,\"sender not selected\");           // only selected worker must commit\n       require(w[msg.sender].iscommitted == false,\"sender Already committed\"); // only one chance to commit\n       w[msg.sender].ish =c;\n       w[msg.sender].iscommitted = true;\n      emit ISHCommitted(msg.sender,c);\n      }\n    // after commit time expires workers can reveal their ish\n    function revealISH(bytes32  ISH,string memory rs) /*onlyAfter(claim_ended,\"Commit not yet ended\") onlyBefore(reveal_ended,\"Reveal ENDED\")*/ public {\n        require(w[msg.sender].selected==true,\"sender not selected\");          // only selected worker must reveal\n        require(w[msg.sender].iscommitted == true,\"sender not committed\");    // only worker who committed ish must reveal\n        require(w[msg.sender].isRevealed == false,\"Sender already revealed\"); // only one chance to reveal\n        require(keccak256(abi.encodePacked(rs))==w[msg.sender].secret,\"Not a committed value\"); // checking correctness of random number previously committed\n        require(keccak256(abi.encodePacked(ISH))==w[msg.sender].ish,\"Not a committed ISH\");     // checking correctness of ish previously committed\n        w[msg.sender].ish=ISH;\n        w[msg.sender].isRevealed==true;\n        emit ISHRevealed(msg.sender,ISH);\n    }\n     function check() public onlyDelegator {\n        uint co=0;\n        uint n = numWor;\n        //uint k = 5;\n        bytes32 winRish;\n        for(uint i=1;i<=n;i++)\n        {\n            for(uint j=i+1;j<=n;j++) {\n                address a = workers[i].name;\n                address b = workers[j].name;\n                if(w[a].round == in_round-1 && w[b].round == in_round-1  && w[a].ish == w[b].ish) {\n                    co++;\n                }\n            }\n        }\n       // emit getcount(co);\n            if(co == (k*(k-1))/2) {\n              s = state.agreed;\n                for(uint z=1;z<=n;z++) {\n                    address c = workers[z].name;\n                   if(w[c].round == in_round-1)  {\n                       w[c].wtype = Wtype.H;\n                        winRish = w[c].ish;\n                      }\n                }\n            }\n            else {\n              s=state.created;\n\n            }\n          if(in_round-1>1)\n         {\n             for(uint z1=1;z1<=n;z1++) {\n                 address d = workers[z1].name;\n              if(w[d].ish == winRish && w[d].wtype == Wtype.NA)\n              {\n                w[d].wtype = Wtype.H;\n              }\n              if(w[d].ish!= winRish && w[d].selected == true && w[d].wtype == Wtype.NA)\n              {\n                w[d].wtype = Wtype.M;\n                 emit PayoutDone(\"Malicious found\");\n              }\n              else {emit PayoutDone(\"Malicious not found\");}\n            }\n      }\n\n    }\n\n    function payout() public payable  {\n    require(s==state.agreed,\"Not agreed\");\n     if(s==state.agreed){\n        uint ma=0;\n        uint na = 0;\n        uint n = numWor;\n      //  uint k = n/2;\n        for(uint i1=1;i1<=n;i1++) {\n            address a = workers[i1].name;\n            if(w[a].wtype==Wtype.M) {\n                ma++;\n            }\n        }\n        for(uint i1=1;i1<=n;i1++) {\n            address a = workers[i1].name;\n            if(w[a].wtype==Wtype.NA) {\n                na++;\n            }\n        }\n       uint ha = n - ma-na;\n\n     /*   for(uint i=1;i<=n;i++) {\n            address payable b = workers[i].name;\n            if(w[b].wtype==Wtype.H) {\n              w[b].name.transfer((reward/((k*(in_round-1))-ma))+(deposit/n-ma));\n           // emit status(numWor,w[b].name,w[b].selected,w[b].round,w[b].wtype);\n            }\n            if(w[b].wtype==Wtype.NA) {\n            w[b].name.transfer((deposit)/n);\n               // emit status(numWor,w[b].name,w[b].selected,w[b].round,w[b].wtype);\n           }\n        } */uint madeposit;\n        if(n-ha-na >=1){madeposit = deposit/n-ha-na;}\n        else { madeposit =0;}\n        \n        for(uint i=1;i<=n;i++){\n          address payable b = workers[i].name;\n          if(w[b].wtype==Wtype.H){\n            b.transfer((reward/((k*(in_round-1))-ma))+(deposit/n) + madeposit/ha);\n          }\n          if(w[b].wtype==Wtype.NA){ b.transfer((deposit)/n);}\n         \n        }\n        emit PayoutDone(\"agreed\");\n    }\n    else{\n    emit PayoutDone(\"disagreed\");\n}\n}\n\n    function checkDuplicate(address wor) internal view returns(bool){\n             if(w[wor].name == wor )\n            {\n                return false;\n            }\n\n        return true;\n    }\n\n\n}\n",
  "sourcePath": "/home/ubuntu/VCwithnotime/contracts/vc.sol",
  "compiler": {
    "name": "solc",
    "version": "0.5.0+commit.1d4f565a.Emscripten.clang"
  },
  "schemaVersion": "3.0.1",
  "updatedAt": "2020-11-18T09:52:12.024Z",
  "devdoc": {
    "methods": {}
  },
  "userdoc": {
    "methods": {}
  }
}